{
    "abi": [
        {
            "type": "constructor",
            "inputs": [
                {
                    "name": "_placeContractAddress",
                    "type": "address",
                    "internalType": "address"
                },
                {
                    "name": "_cancelContractAddress",
                    "type": "address",
                    "internalType": "address"
                },
                {
                    "name": "_fillContractAddress",
                    "type": "address",
                    "internalType": "address"
                },
                {
                    "name": "_enclave",
                    "type": "address",
                    "internalType": "address"
                }
            ],
            "stateMutability": "nonpayable"
        },
        {
            "type": "function",
            "name": "cancel",
            "inputs": [
                {
                    "name": "_pA",
                    "type": "uint256[2]",
                    "internalType": "uint256[2]"
                },
                {
                    "name": "_pB",
                    "type": "uint256[2][2]",
                    "internalType": "uint256[2][2]"
                },
                {
                    "name": "_pC",
                    "type": "uint256[2]",
                    "internalType": "uint256[2]"
                },
                {
                    "name": "_pubSignals",
                    "type": "uint256[2]",
                    "internalType": "uint256[2]"
                }
            ],
            "outputs": [],
            "stateMutability": "nonpayable"
        },
        {
            "type": "function",
            "name": "deleteOrderFromTree",
            "inputs": [
                {
                    "name": "_orderhash",
                    "type": "uint256",
                    "internalType": "uint256"
                }
            ],
            "outputs": [],
            "stateMutability": "nonpayable"
        },
        {
            "type": "function",
            "name": "fill",
            "inputs": [
                {
                    "name": "_pA",
                    "type": "uint256[2]",
                    "internalType": "uint256[2]"
                },
                {
                    "name": "_pB",
                    "type": "uint256[2][2]",
                    "internalType": "uint256[2][2]"
                },
                {
                    "name": "_pC",
                    "type": "uint256[2]",
                    "internalType": "uint256[2]"
                },
                {
                    "name": "_pubSignals",
                    "type": "uint256[22]",
                    "internalType": "uint256[22]"
                }
            ],
            "outputs": [],
            "stateMutability": "nonpayable"
        },
        {
            "type": "function",
            "name": "place",
            "inputs": [
                {
                    "name": "_message",
                    "type": "string",
                    "internalType": "string"
                },
                {
                    "name": "_signature",
                    "type": "bytes",
                    "internalType": "bytes"
                },
                {
                    "name": "_pA",
                    "type": "uint256[2]",
                    "internalType": "uint256[2]"
                },
                {
                    "name": "_pB",
                    "type": "uint256[2][2]",
                    "internalType": "uint256[2][2]"
                },
                {
                    "name": "_pC",
                    "type": "uint256[2]",
                    "internalType": "uint256[2]"
                },
                {
                    "name": "_pubSignals",
                    "type": "uint256[2]",
                    "internalType": "uint256[2]"
                }
            ],
            "outputs": [],
            "stateMutability": "nonpayable"
        },
        {
            "type": "function",
            "name": "recoverSigner",
            "inputs": [
                {
                    "name": "_ethSignedMessageHash",
                    "type": "bytes32",
                    "internalType": "bytes32"
                },
                {
                    "name": "_signature",
                    "type": "bytes",
                    "internalType": "bytes"
                }
            ],
            "outputs": [
                {
                    "name": "",
                    "type": "address",
                    "internalType": "address"
                }
            ],
            "stateMutability": "pure"
        },
        {
            "type": "function",
            "name": "splitSignature",
            "inputs": [
                {
                    "name": "sig",
                    "type": "bytes",
                    "internalType": "bytes"
                }
            ],
            "outputs": [
                {
                    "name": "r",
                    "type": "bytes32",
                    "internalType": "bytes32"
                },
                {
                    "name": "s",
                    "type": "bytes32",
                    "internalType": "bytes32"
                },
                {
                    "name": "v",
                    "type": "uint8",
                    "internalType": "uint8"
                }
            ],
            "stateMutability": "pure"
        },
        {
            "type": "function",
            "name": "verifyMessage",
            "inputs": [
                {
                    "name": "_signer",
                    "type": "address",
                    "internalType": "address"
                },
                {
                    "name": "_message",
                    "type": "string",
                    "internalType": "string"
                },
                {
                    "name": "_signature",
                    "type": "bytes",
                    "internalType": "bytes"
                }
            ],
            "outputs": [
                {
                    "name": "",
                    "type": "bool",
                    "internalType": "bool"
                }
            ],
            "stateMutability": "pure"
        },
        {
            "type": "event",
            "name": "constructed",
            "inputs": [
                {
                    "name": "placeVerifier",
                    "type": "address",
                    "indexed": true,
                    "internalType": "address"
                },
                {
                    "name": "cancelVerifier",
                    "type": "address",
                    "indexed": true,
                    "internalType": "address"
                },
                {
                    "name": "fillVerifier",
                    "type": "address",
                    "indexed": true,
                    "internalType": "address"
                },
                {
                    "name": "enclave",
                    "type": "address",
                    "indexed": false,
                    "internalType": "address"
                }
            ],
            "anonymous": false
        },
        {
            "type": "event",
            "name": "orderCancelled",
            "inputs": [
                {
                    "name": "pubaddr",
                    "type": "address",
                    "indexed": true,
                    "internalType": "address"
                },
                {
                    "name": "orderhash",
                    "type": "uint256",
                    "indexed": true,
                    "internalType": "uint256"
                }
            ],
            "anonymous": false
        },
        {
            "type": "event",
            "name": "orderDelete",
            "inputs": [
                {
                    "name": "orderhash",
                    "type": "uint256",
                    "indexed": true,
                    "internalType": "uint256"
                }
            ],
            "anonymous": false
        },
        {
            "type": "event",
            "name": "orderFilled",
            "inputs": [
                {
                    "name": "pubaddr",
                    "type": "address",
                    "indexed": true,
                    "internalType": "address"
                },
                {
                    "name": "orderhash",
                    "type": "uint256",
                    "indexed": true,
                    "internalType": "uint256"
                },
                {
                    "name": "filledorderhashes",
                    "type": "uint256[]",
                    "indexed": true,
                    "internalType": "uint256[]"
                }
            ],
            "anonymous": false
        },
        {
            "type": "event",
            "name": "orderPlaced",
            "inputs": [
                {
                    "name": "pubaddr",
                    "type": "address",
                    "indexed": true,
                    "internalType": "address"
                },
                {
                    "name": "orderhash",
                    "type": "uint256",
                    "indexed": true,
                    "internalType": "uint256"
                }
            ],
            "anonymous": false
        }
    ],
    "bytecode": {
        "object": "0x608060405234801561001057600080fd5b50604051610f86380380610f8683398101604081905261002f916100d8565b600080546001600160a01b03199081166001600160a01b038781169182179093556001805483168785169081179091556002805484168786169081179091556003805490941694861694851790935560405193845291927f0e5633adfeb11a0d0b60bffb29ae2862f15f9538a1f6922728937559fafee6d29060200160405180910390a45050505061012c565b80516001600160a01b03811681146100d357600080fd5b919050565b600080600080608085870312156100ee57600080fd5b6100f7856100bc565b9350610105602086016100bc565b9250610113604086016100bc565b9150610121606086016100bc565b905092959194509250565b610e4b8061013b6000396000f3fe608060405234801561001057600080fd5b506004361061007d5760003560e01c806371da6a461161005b57806371da6a46146100bd57806397aba7f9146100e55780639827cec014610110578063a7bb58031461012357600080fd5b80630233cce8146100825780631ce2574a146100975780636b16b727146100aa575b600080fd5b61009561009036600461081e565b610154565b005b6100956100a5366004610964565b6102c8565b6100956100b8366004610a10565b6103d9565b6100d06100cb366004610a6a565b61048b565b60405190151581526020015b60405180910390f35b6100f86100f3366004610aec565b6104e9565b6040516001600160a01b0390911681526020016100dc565b61009561011e366004610b33565b610569565b610136610131366004610b4c565b6105a2565b60408051938452602084019290925260ff16908201526060016100dc565b6002546040516362d07e1360e11b81526001600160a01b039091169063c5a0fc269061018a908790879087908790600401610c04565b602060405180830381865afa1580156101a7573d6000803e3d6000fd5b505050506040513d601f19601f820116820180604052508101906101cb9190610c61565b156102c25760408051600a8082526101608201909252600091602082016101408036833701905050905061020682600b5b6020020151610569565b600c5b60168110156102785782816016811061022457610224610c8a565b602002015182610235600c84610cb6565b8151811061024557610245610c8a565b6020026020010181815250506102668382601681106101fc576101fc610c8a565b8061027081610cc9565b915050610209565b50806040516102879190610ce2565b604051908190038120610160840151909133907f7870d16bdcad4afe301e776d43cac9c004dadf5f7c381dea8afd44cfcf80f46d90600090a4505b50505050565b6003546102df906001600160a01b0316878761048b565b6103245760405162461bcd60e51b8152602060048201526011602482015270496e76616c6964207369676e617475726560781b60448201526064015b60405180910390fd5b600054604051637ae4eb4f60e11b81526001600160a01b039091169063f5c9d69e9061035a908790879087908790600401610d18565b602060405180830381865afa158015610377573d6000803e3d6000fd5b505050506040513d601f19601f8201168201806040525081019061039b9190610c61565b156103d157602081015160405133907f0dc235fb8fc96d4e4bccd5c884a5bb1fa0e5c265181928fb9d9e808debeb1d3790600090a35b505050505050565b600154604051637ae4eb4f60e11b81526001600160a01b039091169063f5c9d69e9061040f908790879087908790600401610d18565b602060405180830381865afa15801561042c573d6000803e3d6000fd5b505050506040513d601f19601f820116820180604052508101906104509190610c61565b156102c257602081015160405133907f07b9b13d5d799b1ba789a6e0d34c63f9d8104c5c3d4ad7b1637e85105543e15390600090a350505050565b6000806104988451610614565b846040516020016104aa929190610d88565b604051602081830303815290604052805190602001209050846001600160a01b03166104d682856104e9565b6001600160a01b03161495945050505050565b6000806000806104f8856105a2565b6040805160008152602081018083528b905260ff8316918101919091526060810184905260808101839052929550909350915060019060a0016020604051602081039080840390855afa158015610553573d6000803e3d6000fd5b5050506020604051035193505050505b92915050565b806000036105745750565b60405181907f2e692776019d860e60962685ff366f93ae656e9262313b383d57f56e678e794590600090a250565b600080600083516041146105f85760405162461bcd60e51b815260206004820152601860248201527f496e76616c6964207369676e6174757265206c656e6774680000000000000000604482015260640161031b565b50505060208101516040820151606083015160001a9193909250565b60608160000361063b5750506040805180820190915260018152600360fc1b602082015290565b8160005b8115610665578061064f81610cc9565b915061065e9050600a83610dc3565b915061063f565b60008167ffffffffffffffff81111561068057610680610740565b6040519080825280601f01601f1916602001820160405280156106aa576020820181803683370190505b509050815b8515610737576106c0600182610cb6565b905060006106cf600a88610dc3565b6106da90600a610de5565b6106e49088610cb6565b6106ef906030610dfc565b905060008160f81b90508084848151811061070c5761070c610c8a565b60200101906001600160f81b031916908160001a90535061072e600a89610dc3565b975050506106af565b50949350505050565b634e487b7160e01b600052604160045260246000fd5b6040805190810167ffffffffffffffff8111828210171561077957610779610740565b60405290565b600082601f83011261079057600080fd5b610798610756565b8060408401858111156107aa57600080fd5b845b818110156107c45780358452602093840193016107ac565b509095945050505050565b600082601f8301126107e057600080fd5b6107e8610756565b8060808401858111156107fa57600080fd5b845b818110156107c45761080e878261077f565b84526020909301926040016107fc565b6000806000806103c080868803121561083657600080fd5b610840878761077f565b945061084f87604088016107cf565b935061085e8760c0880161077f565b92508661011f87011261087057600080fd5b6040516102c0810181811067ffffffffffffffff8211171561089457610894610740565b6040529086019080888311156108a957600080fd5b61010088015b838110156108c75780358252602091820191016108af565b5050809250505092959194509250565b600082601f8301126108e857600080fd5b813567ffffffffffffffff8082111561090357610903610740565b604051601f8301601f19908116603f0116810190828211818310171561092b5761092b610740565b8160405283815286602085880101111561094457600080fd5b836020870160208301376000602085830101528094505050505092915050565b600080600080600080610180878903121561097e57600080fd5b863567ffffffffffffffff8082111561099657600080fd5b6109a28a838b016108d7565b975060208901359150808211156109b857600080fd5b506109c589828a016108d7565b9550506109d5886040890161077f565b93506109e488608089016107cf565b92506109f488610100890161077f565b9150610a0488610140890161077f565b90509295509295509295565b6000806000806101408587031215610a2757600080fd5b610a31868661077f565b9350610a4086604087016107cf565b9250610a4f8660c0870161077f565b9150610a5f86610100870161077f565b905092959194509250565b600080600060608486031215610a7f57600080fd5b83356001600160a01b0381168114610a9657600080fd5b9250602084013567ffffffffffffffff80821115610ab357600080fd5b610abf878388016108d7565b93506040860135915080821115610ad557600080fd5b50610ae2868287016108d7565b9150509250925092565b60008060408385031215610aff57600080fd5b82359150602083013567ffffffffffffffff811115610b1d57600080fd5b610b29858286016108d7565b9150509250929050565b600060208284031215610b4557600080fd5b5035919050565b600060208284031215610b5e57600080fd5b813567ffffffffffffffff811115610b7557600080fd5b610b81848285016108d7565b949350505050565b8060005b60028110156102c2578151845260209384019390910190600101610b8d565b806000805b6002808210610bc05750610bfd565b835186845b83811015610be3578251825260209283019290910190600101610bc5565b505050604095909501945060209290920191600101610bb1565b5050505050565b6103c08101610c138287610b89565b610c206040830186610bac565b610c2d60c0830185610b89565b61010082018360005b6016811015610c55578151835260209283019290910190600101610c36565b50505095945050505050565b600060208284031215610c7357600080fd5b81518015158114610c8357600080fd5b9392505050565b634e487b7160e01b600052603260045260246000fd5b634e487b7160e01b600052601160045260246000fd5b8181038181111561056357610563610ca0565b600060018201610cdb57610cdb610ca0565b5060010190565b815160009082906020808601845b83811015610d0c57815185529382019390820190600101610cf0565b50929695505050505050565b6101408101610d278287610b89565b610d346040830186610bac565b610d4160c0830185610b89565b610d4f610100830184610b89565b95945050505050565b6000815160005b81811015610d795760208185018101518683015201610d5f565b50600093019283525090919050565b7f19457468657265756d205369676e6564204d6573736167653a0a00000000000081526000610b81610dbd601a840186610d58565b84610d58565b600082610de057634e487b7160e01b600052601260045260246000fd5b500490565b808202811582820484141761056357610563610ca0565b60ff818116838216019081111561056357610563610ca056fea2646970667358221220b8a1d579986ec215bfc0dea53160697da9ddc0d80e0c8f5d76b5dc501ac989bb64736f6c63430008150033",
        "linkReferences": {}
    },
    "methodIdentifiers": {
        "cancel(uint256[2],uint256[2][2],uint256[2],uint256[2])": "6b16b727",
        "deleteOrderFromTree(uint256)": "9827cec0",
        "fill(uint256[2],uint256[2][2],uint256[2],uint256[22])": "0233cce8",
        "place(string,bytes,uint256[2],uint256[2][2],uint256[2],uint256[2])": "1ce2574a",
        "recoverSigner(bytes32,bytes)": "97aba7f9",
        "splitSignature(bytes)": "a7bb5803",
        "verifyMessage(address,string,bytes)": "71da6a46"
    },
    "id": 26
}