{
    "abi": [
        {
            "type": "function",
            "name": "deleteOrderFromTree",
            "inputs": [
                {
                    "name": "_orderhash",
                    "type": "uint256",
                    "internalType": "uint256"
                }
            ],
            "outputs": [],
            "stateMutability": "nonpayable"
        },
        {
            "type": "function",
            "name": "verifyCancelProof",
            "inputs": [
                {
                    "name": "_addr",
                    "type": "address",
                    "internalType": "address"
                },
                {
                    "name": "_pA",
                    "type": "uint256[2]",
                    "internalType": "uint256[2]"
                },
                {
                    "name": "_pB",
                    "type": "uint256[2][2]",
                    "internalType": "uint256[2][2]"
                },
                {
                    "name": "_pC",
                    "type": "uint256[2]",
                    "internalType": "uint256[2]"
                },
                {
                    "name": "_pubSignals",
                    "type": "uint256[2]",
                    "internalType": "uint256[2]"
                }
            ],
            "outputs": [],
            "stateMutability": "nonpayable"
        },
        {
            "type": "function",
            "name": "verifyFillProof",
            "inputs": [
                {
                    "name": "_addr",
                    "type": "address",
                    "internalType": "address"
                },
                {
                    "name": "_pA",
                    "type": "uint256[2]",
                    "internalType": "uint256[2]"
                },
                {
                    "name": "_pB",
                    "type": "uint256[2][2]",
                    "internalType": "uint256[2][2]"
                },
                {
                    "name": "_pC",
                    "type": "uint256[2]",
                    "internalType": "uint256[2]"
                },
                {
                    "name": "_pubSignals",
                    "type": "uint256[22]",
                    "internalType": "uint256[22]"
                }
            ],
            "outputs": [],
            "stateMutability": "nonpayable"
        },
        {
            "type": "function",
            "name": "verifyPlaceProof",
            "inputs": [
                {
                    "name": "_addr",
                    "type": "address",
                    "internalType": "address"
                },
                {
                    "name": "_pA",
                    "type": "uint256[2]",
                    "internalType": "uint256[2]"
                },
                {
                    "name": "_pB",
                    "type": "uint256[2][2]",
                    "internalType": "uint256[2][2]"
                },
                {
                    "name": "_pC",
                    "type": "uint256[2]",
                    "internalType": "uint256[2]"
                },
                {
                    "name": "_pubSignals",
                    "type": "uint256[2]",
                    "internalType": "uint256[2]"
                }
            ],
            "outputs": [],
            "stateMutability": "nonpayable"
        },
        {
            "type": "event",
            "name": "orderCancelled",
            "inputs": [
                {
                    "name": "pubaddr",
                    "type": "address",
                    "indexed": true,
                    "internalType": "address"
                },
                {
                    "name": "orderhash",
                    "type": "uint256",
                    "indexed": true,
                    "internalType": "uint256"
                }
            ],
            "anonymous": false
        },
        {
            "type": "event",
            "name": "orderDelete",
            "inputs": [
                {
                    "name": "orderhash",
                    "type": "uint256",
                    "indexed": true,
                    "internalType": "uint256"
                }
            ],
            "anonymous": false
        },
        {
            "type": "event",
            "name": "orderFilled",
            "inputs": [
                {
                    "name": "pubaddr",
                    "type": "address",
                    "indexed": true,
                    "internalType": "address"
                },
                {
                    "name": "orderhash",
                    "type": "uint256",
                    "indexed": true,
                    "internalType": "uint256"
                },
                {
                    "name": "filledorderhashes",
                    "type": "uint256[]",
                    "indexed": true,
                    "internalType": "uint256[]"
                }
            ],
            "anonymous": false
        },
        {
            "type": "event",
            "name": "orderPlaced",
            "inputs": [
                {
                    "name": "pubaddr",
                    "type": "address",
                    "indexed": true,
                    "internalType": "address"
                },
                {
                    "name": "orderhash",
                    "type": "uint256",
                    "indexed": true,
                    "internalType": "uint256"
                }
            ],
            "anonymous": false
        }
    ],
    "bytecode": {
        "object": "0x608060405234801561001057600080fd5b50610801806100206000396000f3fe608060405234801561001057600080fd5b506004361061004c5760003560e01c806344a00540146100515780639827cec014610066578063a98d0fed14610079578063f96c4ad51461008c575b600080fd5b61006461005f3660046104c7565b61009f565b005b610064610074366004610532565b61014f565b61006461008736600461054b565b61017d565b61006461009a3660046104c7565b6102ed565b604051637ae4eb4f60e11b81526001600160a01b0386169063f5c9d69e906100d1908790879087908790600401610671565b602060405180830381865afa1580156100ee573d6000803e3d6000fd5b505050506040513d601f19601f8201168201806040525081019061011291906106b1565b1561014857602081015160405133907f0dc235fb8fc96d4e4bccd5c884a5bb1fa0e5c265181928fb9d9e808debeb1d3790600090a35b5050505050565b60405181907f2e692776019d860e60962685ff366f93ae656e9262313b383d57f56e678e794590600090a250565b6040516362d07e1360e11b81526001600160a01b0386169063c5a0fc26906101af9087908790879087906004016106f0565b602060405180830381865afa1580156101cc573d6000803e3d6000fd5b505050506040513d601f19601f820116820180604052508101906101f091906106b1565b156101485760408051600a8082526101608201909252600091602082016101408036833701905050905061022b82600b5b602002015161014f565b600c5b601681101561029d57828160168110610249576102496106da565b60200201518261025a600c84610763565b8151811061026a5761026a6106da565b60200260200101818152505061028b838260168110610221576102216106da565b806102958161077c565b91505061022e565b50806040516102ac9190610795565b604051908190038120610160840151909133907f7870d16bdcad4afe301e776d43cac9c004dadf5f7c381dea8afd44cfcf80f46d90600090a4505050505050565b604051637ae4eb4f60e11b81526001600160a01b0386169063f5c9d69e9061031f908790879087908790600401610671565b602060405180830381865afa15801561033c573d6000803e3d6000fd5b505050506040513d601f19601f8201168201806040525081019061036091906106b1565b1561014857602081015160405133907f07b9b13d5d799b1ba789a6e0d34c63f9d8104c5c3d4ad7b1637e85105543e15390600090a35050505050565b80356001600160a01b03811681146103b357600080fd5b919050565b634e487b7160e01b600052604160045260246000fd5b6040805190810167ffffffffffffffff811182821017156103f1576103f16103b8565b60405290565b6040516102c0810167ffffffffffffffff811182821017156103f1576103f16103b8565b600082601f83011261042c57600080fd5b6104346103ce565b80604084018581111561044657600080fd5b845b81811015610460578035845260209384019301610448565b509095945050505050565b600082601f83011261047c57600080fd5b60406104866103ce565b80608085018681111561049857600080fd5b855b818110156104bb576104ac888261041b565b8452602090930192840161049a565b50909695505050505050565b600080600080600061016086880312156104e057600080fd5b6104e98661039c565b94506104f8876020880161041b565b9350610507876060880161046b565b92506105168760e0880161041b565b915061052687610120880161041b565b90509295509295909350565b60006020828403121561054457600080fd5b5035919050565b60008060008060006103e080878903121561056557600080fd5b61056e8761039c565b9550602061057e89828a0161041b565b955061058d8960608a0161046b565b945061059c8960e08a0161041b565b93508861013f8901126105ae57600080fd5b6105b66103f7565b91880191808a8411156105c857600080fd5b6101208a015b848110156105e557803583529183019183016105ce565b50809450505050509295509295909350565b8060005b600281101561061a5781518452602093840193909101906001016105fb565b50505050565b806000805b60028082106106345750610148565b835186845b83811015610657578251825260209283019290910190600101610639565b505050604095909501945060209290920191600101610625565b610140810161068082876105f7565b61068d6040830186610620565b61069a60c08301856105f7565b6106a86101008301846105f7565b95945050505050565b6000602082840312156106c357600080fd5b815180151581146106d357600080fd5b9392505050565b634e487b7160e01b600052603260045260246000fd5b6103c081016106ff82876105f7565b61070c6040830186610620565b61071960c08301856105f7565b61010082018360005b6016811015610741578151835260209283019290910190600101610722565b50505095945050505050565b634e487b7160e01b600052601160045260246000fd5b818103818111156107765761077661074d565b92915050565b60006001820161078e5761078e61074d565b5060010190565b815160009082906020808601845b838110156107bf578151855293820193908201906001016107a3565b5092969550505050505056fea2646970667358221220b5204a73ee04e339d452acf6ca151dc32c0eae94d558f22de59fcbd5e115b82064736f6c63430008150033",
        "linkReferences": {}
    },
    "methodIdentifiers": {
        "deleteOrderFromTree(uint256)": "9827cec0",
        "verifyCancelProof(address,uint256[2],uint256[2][2],uint256[2],uint256[2])": "f96c4ad5",
        "verifyFillProof(address,uint256[2],uint256[2][2],uint256[2],uint256[22])": "a98d0fed",
        "verifyPlaceProof(address,uint256[2],uint256[2][2],uint256[2],uint256[2])": "44a00540"
    },
    "id": 25
}